:020000040000fa
:08000000ec0204000000000006
:020000040000fa
:100008007c0100007c0100007c0100007c010000f4
:100018007c0100007c0100007c0100007c010000e4
:100028007c0100007c0100007c0100007c010000d4
:100038007c0100007c0100007c0100007c010000c4
:100048007c0100007c0100007c01000070030000be
:100058007c0100007c0100007c0100007c010000a4
:10006800280300007c0100007c0100007c010000e6
:100078007c0100007c0100007c0100007c01000084
:100088007c0100007c0100007c0100007c01000074
:100098007c0100007c0100007c0100007c01000064
:1000a8007c0100007c0100007c0100007c01000054
:1000b8007c0100007c0100007c0100007c01000044
:1000c8007c0100007c0100007c0100007c01000034
:1000d8007c0100007c0100007c0100007c01000024
:1000e8007c0100007c0100007c0100007c01000014
:0800f8007c0100007c01000006
:020000040000fa
:100108007c0100007c0100007c0100007c010000f3
:100118007c0100007c0100007c0100007c010000e3
:100128007c0100007c0100007c0100007c010000d3
:100138007c0100007c0100007c0100007c010000c3
:100148007c0100007c0100007c01000070030000bd
:100158007c0100007c0100007c0100007c010000a3
:10016800280300007c0100007c0100007c010000e5
:100178007c0100007c0100007c0100007c01000083
:100188007c0100007c0100007c0100007c01000073
:100198007c0100007c0100007c0100007c01000063
:1001a8007c0100007c0100007c0100007c01000053
:1001b8007c0100007c0100007c0100007c01000043
:1001c8007c0100007c0100007c0100007c01000033
:1001d8007c0100007c0100007c0100007c01000023
:1001e8007c0100007c0100007c0100007c01000013
:0801f8007c0100007c01000005
:020000040000fa
:100200008a1f78008b1f780000000600910188008b
:10021000800478000000eb001a003700e2844400fc
:1002200032a0b4009905ba00e284440032a0b400c0
:100230009906ba00e284440032a0b4000006eb0044
:10024000476fde00fd07b200636ce10003003a0077
:10025000ebff07000000eb000a003700606ce100d4
:1002600004003a00005deb008b05e900fdff3e0055
:10027000040037006168e100010032000086eb00f5
:100280000b00070019c7ba001905ba000e04e000f8
:1002900003003a000a00e000e0ff3a000000060018
:1002a000fe07b2009e0188008a047800f5ff37003f
:1002b000395dba008b05e9000c003200295dba00f7
:1002c0008b05e900080032000c00e00003003a0052
:1002d000e284440032a0b400f5ff370019ddba0013
:1002e0008b05e900faff3a008904e800e184440044
:1002f00032a0b400000006000040da000000fe005a
:0403000000000500f4
:020000040000fa
:100304000a0a0000240000000000000000080000a9
:100314000a020000020000000000000000000000cb
:1003240000000000000000000000000000000000c9
:1003340000000000000000000000000000000000b9
:1003440000000000000000000000000000000000a9
:100354000000000000000000000000000000000099
:0405d4000000000023
:020000040000fa
:1005d800efa2200000ff20000001880000000000ba
:1005e8000b0007000200070021000700ffff37008b
:1005f800801f7800f0ff2f0080168800f0ff290088
:1006080060168800d1a2a9004f00780000000600fb
:1006180000002800b010880000402000c0108800aa
:1006280030002000f0108800000006008600a900b5
:1006380086e0a900c182a800c1a2a8008e00a80077
:100648008ee0a80000000600801f7800d1a2aa0052
:100658008600a9004f00780000400600801f78003f
:10066800d1c2aa0086e0a9004f0078000040060029
:10067800801f7800a022ef00a222ef00a422ef0042
:10068800a622ef00aa22ef00a802a900a822a9002a
:10069800a842a900a902a900400e28000015880058
:1006a800c040200010158800f000210020158800a7
:1006b80080ef2f004015880070102000501588002a
:1006c8008560a9008d60a80084802000a1e2a800b0
:1006d8004f00780000000600809fbe00841f78004d
:1006e800d1a2a800d1a2a900011480001104200001
:1006f800d110880011148000004088002114800067
:10070800004088003114800000408800d1a2a80071
:10071800d1a2a900a002a9008560a9004f02780013
:080728004f00be000040060076
:020000040000fa
:0200000401f009
:04000000e5bf000058
:00000001FF
